:020000040000fa
:080000000002040000000000f2
:020000040000fa
:0400080010030000e1
:020000040000fa
:04000c0010030000dd
:020000040000fa
:0400100010030000d9
:020000040000fa
:0400140010030000d5
:020000040000fa
:0400180010030000d1
:020000040000fa
:04001c0010030000cd
:020000040000fa
:0400200010030000c9
:020000040000fa
:0400240010030000c5
:020000040000fa
:0400280010030000c1
:020000040000fa
:04002c0010030000bd
:020000040000fa
:0400300010030000b9
:020000040000fa
:04003400c8020000fe
:020000040000fa
:0400380010030000b1
:020000040000fa
:04003c0010030000ad
:020000040000fa
:0400400010030000a9
:020000040000fa
:0400440002030000b3
:020000040000fa
:0400480010030000a1
:020000040000fa
:04004c00100300009d
:020000040000fa
:040050001003000099
:020000040000fa
:040054001003000095
:020000040000fa
:040058001003000091
:020000040000fa
:04005c00100300008d
:020000040000fa
:040060001003000089
:020000040000fa
:040064001003000085
:020000040000fa
:040068001003000081
:020000040000fa
:04006c00100300007d
:020000040000fa
:040070001003000079
:020000040000fa
:040074001003000075
:020000040000fa
:040078001003000071
:020000040000fa
:04007c00100300006d
:020000040000fa
:040080001003000069
:020000040000fa
:040084001003000065
:020000040000fa
:040088001003000061
:020000040000fa
:04008c00100300005d
:020000040000fa
:040090001003000059
:020000040000fa
:040094001003000055
:020000040000fa
:040098001003000051
:020000040000fa
:04009c00100300004d
:020000040000fa
:0400a0001003000049
:020000040000fa
:0400a4001003000045
:020000040000fa
:0400a8001003000041
:020000040000fa
:0400ac00100300003d
:020000040000fa
:0400b0001003000039
:020000040000fa
:0400b4001003000035
:020000040000fa
:0400b8001003000031
:020000040000fa
:0400bc00100300002d
:020000040000fa
:0400c0001003000029
:020000040000fa
:0400c4001003000025
:020000040000fa
:0400c8001003000021
:020000040000fa
:0400cc00100300001d
:020000040000fa
:0400d0001003000019
:020000040000fa
:0400d4001003000015
:020000040000fa
:0400d8001003000011
:020000040000fa
:0400dc00100300000d
:020000040000fa
:0400e0001003000009
:020000040000fa
:0400e4001003000005
:020000040000fa
:0400e8001003000001
:020000040000fa
:0400ec0010030000fd
:020000040000fa
:0400f00010030000f9
:020000040000fa
:0400f40010030000f5
:020000040000fa
:0400f80010030000f1
:020000040000fa
:0400fc0010030000ed
:020000040000fa
:0401000010030000e8
:020000040000fa
:0401040010030000e4
:020000040000fa
:0401080010030000e0
:020000040000fa
:04010c0010030000dc
:020000040000fa
:0401100010030000d8
:020000040000fa
:0401140010030000d4
:020000040000fa
:0401180010030000d0
:020000040000fa
:04011c0010030000cc
:020000040000fa
:0401200010030000c8
:020000040000fa
:0401240010030000c4
:020000040000fa
:0401280010030000c0
:020000040000fa
:04012c0010030000bc
:020000040000fa
:0401300010030000b8
:020000040000fa
:0401340010030000b4
:020000040000fa
:0401380010030000b0
:020000040000fa
:04013c0010030000ac
:020000040000fa
:0401400010030000a8
:020000040000fa
:0401440010030000a4
:020000040000fa
:0401480010030000a0
:020000040000fa
:04014c00100300009c
:020000040000fa
:040150001003000098
:020000040000fa
:040154001003000094
:020000040000fa
:040158001003000090
:020000040000fa
:04015c00100300008c
:020000040000fa
:040160001003000088
:020000040000fa
:040164001003000084
:020000040000fa
:0402080010030000df
:020000040000fa
:04020c0010030000db
:020000040000fa
:0402100010030000d7
:020000040000fa
:0402140010030000d3
:020000040000fa
:0402180010030000cf
:020000040000fa
:04021c0010030000cb
:020000040000fa
:0402200010030000c7
:020000040000fa
:0402240010030000c3
:020000040000fa
:0402280010030000bf
:020000040000fa
:04022c0010030000bb
:020000040000fa
:0402300010030000b7
:020000040000fa
:04023400c8020000fc
:020000040000fa
:0402380010030000af
:020000040000fa
:04023c0010030000ab
:020000040000fa
:0402400010030000a7
:020000040000fa
:0402440002030000b1
:020000040000fa
:04024800100300009f
:020000040000fa
:04024c00100300009b
:020000040000fa
:040250001003000097
:020000040000fa
:040254001003000093
:020000040000fa
:04025800100300008f
:020000040000fa
:04025c00100300008b
:020000040000fa
:040260001003000087
:020000040000fa
:040264001003000083
:020000040000fa
:04026800100300007f
:020000040000fa
:04026c00100300007b
:020000040000fa
:040270001003000077
:020000040000fa
:040274001003000073
:020000040000fa
:04027800100300006f
:020000040000fa
:04027c00100300006b
:020000040000fa
:040280001003000067
:020000040000fa
:040284001003000063
:020000040000fa
:04028800100300005f
:020000040000fa
:04028c00100300005b
:020000040000fa
:040290001003000057
:020000040000fa
:040294001003000053
:020000040000fa
:04029800100300004f
:020000040000fa
:04029c00100300004b
:020000040000fa
:0402a0001003000047
:020000040000fa
:0402a4001003000043
:020000040000fa
:0402a800100300003f
:020000040000fa
:0402ac00100300003b
:020000040000fa
:0402b0001003000037
:020000040000fa
:0402b4001003000033
:020000040000fa
:0402b800100300002f
:020000040000fa
:0402bc00100300002b
:020000040000fa
:0402c0001003000027
:020000040000fa
:0402c4001003000023
:020000040000fa
:0402c800100300001f
:020000040000fa
:0402cc00100300001b
:020000040000fa
:0402d0001003000017
:020000040000fa
:0402d4001003000013
:020000040000fa
:0402d800100300000f
:020000040000fa
:0402dc00100300000b
:020000040000fa
:0402e0001003000007
:020000040000fa
:0402e4001003000003
:020000040000fa
:0402e80010030000ff
:020000040000fa
:0402ec0010030000fb
:020000040000fa
:0402f00010030000f7
:020000040000fa
:0402f40010030000f3
:020000040000fa
:0402f80010030000ef
:020000040000fa
:0402fc0010030000eb
:020000040000fa
:0403000010030000e6
:020000040000fa
:0403040010030000e2
:020000040000fa
:0403080010030000de
:020000040000fa
:04030c0010030000da
:020000040000fa
:0403100010030000d6
:020000040000fa
:0403140010030000d2
:020000040000fa
:0403180010030000ce
:020000040000fa
:04031c0010030000ca
:020000040000fa
:0403200010030000c6
:020000040000fa
:0403240010030000c2
:020000040000fa
:0403280010030000be
:020000040000fa
:04032c0010030000ba
:020000040000fa
:0403300010030000b6
:020000040000fa
:0403340010030000b2
:020000040000fa
:0403380010030000ae
:020000040000fa
:04033c0010030000aa
:020000040000fa
:0403400010030000a6
:020000040000fa
:0403440010030000a2
:020000040000fa
:04034800100300009e
:020000040000fa
:04034c00100300009a
:020000040000fa
:040350001003000096
:020000040000fa
:040354001003000092
:020000040000fa
:04035800100300008e
:020000040000fa
:04035c00100300008a
:020000040000fa
:040360001003000086
:020000040000fa
:040364001003000082
:020000040000fa
:100400002f8720000e7f24000e01880000000000ce
:10041000000020000000e000020032000001200087
:1004200020028800140007007f0007000000e000a1
:1004300003003a0020a7200001002000020037003e
:100440000000200001002000810f70000100320038
:1004500014000700000020000000e000020032004d
:1004600000000200000000000c0702000000000075
:100470000040da000000fe004440a9000000200017
:100480000000e0000300320000002000a00188000e
:100490004440a800000006008a1f78008b1f7800e7
:1004a0000000060091018800800478000000eb0045
:1004b0001a003700e284440032a0b4009905ba0063
:1004c000e284440032a0b4009906ba00e2844400f9
:1004d00032a0b4000006eb00476fde00fd07b2005b
:1004e000636ce10003003a00ebff07000000eb0043
:1004f0000a003700606ce10004003a00005deb0088
:100500008b05e900fdff3e00040037006168e10053
:10051000010032000086eb000b00070019c7ba008b
:100520001905ba000e04e00003003a000a00e000da
:10053000e0ff3a0000000600fe07b2009e018800be
:100540008a047800f5ff3700395dba008b05e900b1
:100550000c003200295dba008b05e900080032006a
:100560000c00e00003003a00e284440032a0b40032
:10057000f5ff370019ddba008b05e900faff3a00f4
:100580008904e800e184440032a0b40000000600c1
:10059000809fbe000000fa008460a90005e1a90068
:1005a000804380000000e0000400340080438000ad
:1005b0000000e9008043880008003700a000200008
:1005c000804388001040800021408000610040008e
:1005d000e0804800104088002140880000c8bf002b
:1005e0000004e00002003a0010c0b30000e8b700c9
:1005f0000021ef0005e1a8000080fa004f00be00d6
:10060000004006000000fa0084e0a90011e1a90002
:100610000621ef0011e1a8000080fa00004006006a
:100620000040da000000fe000000050003f0a20018
:10063000889fbe008a9fbe008c1f78001b010700a8
:10064000220133006450e1004f0032006420e100d9
:100650005200320003826c0007003b000905d00005
:100660000306d000820f54000c065d000200390022
:100670000200320089017800030678008582550067
:1006800004003d000003fd008103fd008502ea0037
:100690008b854200840f720002003b006000100056
:1006a000e08018006011b8000005eb007a28e10036
:1006b0000a00390006007800c75ddd00f707b200c8
:1006c000878075002d003700828171000a01780053
:1006d000610560008180d1000080d3008502e900bf
:1006e000f9ff3b00060440008784480002003b00fd
:1006f00060041400e0841c000988a3000700320095
:100700008a81710082817100610164008904d100d5
:100710000884d3008b05e800170037000978a30090
:1007200013003a000b00e000130034008b05e900d1
:100730000804440089844c000a4474000978a3002a
:100740000d003a000b00e000070034008b05e900c3
:100750000804440089844c0001003a000b0020008a
:100760000978a300f7ff32000001eb000200370018
:10077000828171000a017800910007000cf0a70047
:1007800001f0a000da0037006420e10002003a0026
:10079000838f6c00da0033000801be000200be0047
:1007a000d3003700889fbe008a9fbe008c1f780050
:1007b000be000700c500330003866c006450e100f2
:1007c0002e0032006420e100330032006150e1006d
:1007d0002f0032006120e100310032008585550094
:1007e000eb07b000090020000804200005003700d6
:1007f0000804440089844c000a00310006034300c9
:1008000087834b000001530081815b00f8ff3300b8
:100810000203be000800a0000804440089844c00c4
:10082000f6ff3900c639dd00830173000100320094
:10083000130020008904d1000884d3000998a30084
:10084000050032000800a7000300a0008904d100c1
:100850000884d3008b05e8008904d1000884d30004
:100860000001eb000281d2005500070001f0a10059
:100870000cf0a70001f0a0009d0037006420e1000b
:100880009f0032000801be000200be00f7ff3700e3
:100890006120e1009a0032006000b800f3ff3700e9
:1008a0000000200001f82700f0ff370014002000ae
:1008b000ca003700f4ff2f00c80037000001be0057
:1008c000650007000470a70003f0a1006509b100ee
:1008d000160032000d0035006828e10006003500e2
:1008e000f0ff2f00f1ff27000300e00013003b00a2
:1008f0000100280000000500000040008180480041
:100900008502e900fcff3a0008003700f88f42003a
:1009100002003c008000eb00000005008100d100d7
:100920000080d3008502e800fcff3a000300e000ed
:1009300002003b0060001000e0801800000006008c
:100940000001be00440007000470a70003f0a100ee
:1009500003f8a30013003a006509b100100032004b
:10096000090035006928e100020035000100280077
:100970000000050000004000818048008502e90079
:10098000fcff3a0000000600f88f42000500350029
:100990008100d1000080d3008502e800fcff3a000e
:1009a000000006008000eb00000005004f89de001b
:1009b00082017800a40037006011b800b20037004f
:1009c00081002000618055000b003d000b002000dd
:1009d00061fe2f000100e1001d00340082817100e2
:1009e000610164008904d1000884d3000000e8009c
:1009f000faff3a00710020006100640003007000fb
:100a0000020060000900320061044400e0844c00f0
:100a10000988a500050032008b05e8006808e100a0
:100a200002003a008904d1000884d300f20f2000ac
:100a30000258e10005003d00c75ddd00f907b20086
:100a40008980750008007800000006000bf8270078
:100a50008b00780000000500c70ade00f107b20035
:100a6000f50fb20008003200e1cf42000200320070
:100a70000170a00024000500810f70000100320009
:100a80000408050044000500810f700002003a00d0
:100a9000140005008502e9000000400081c0480004
:100aa000fcff3b000170a000240005000004be0014
:100ab000e9ff07000003be000405be000200be00ff
:100ac000e5ff0700844f7500000006000200be002d
:100ad0006450e100050036006420e10002003600a9
:100ae0000968a30001003a000800be000160a000f0
:100af0004f0678004f05be004f04be000000060000
:100b0000f0ff2f00f1ff2700f9ff3700889fbe009c
:100b10008a9fbe008c1f7800e4ff0700ebff3300c4
:100b200003866c006450e100240032006420e10080
:100b3000270032006150e100220032006120e10014
:100b4000210032008b854200eb07b1000134b80070
:100b5000003ab8000804420089844a00013ab8000b
:100b60000030b8008880400009014a0004003300ca
:100b70000000400081804800020149008b05e90027
:100b8000c909dd008301700001003200130020005c
:100b9000c814de004814dd004709de001200b20070
:100ba000c808de000884700085ff070001f0a1007e
:100bb0000cf0a70001f0a000cdff37006120e1009c
:100bc000cfff32000801be000200be00f7ff370071
:100bd0006150e100fcff3a00c9ff3700889fbe006a
:100be0008a9fbe00841f7800b0ff07004f00780086
:100bf00011003300f0ff2f00838f6c0006003b00d4
:100c0000040565000a00a7000800370009f0a600e7
:100c10001000200008003700820f5400838f5c0012
:100c2000030039001000200001003e0000002000f9
:100c300009f0a7000000ea004f05be004f04be0007
:100c40000000e00000000600881f78000304780020
:100c50000300e00007003d0060001000e080180085
:100c600060011900e081190002003b0001f02d0035
:100c7000030037000400070008f0a70001f0a000ff
:100c80004f04780000000600889fbe008a9fbe00c7
:100c9000008270000402710004827100260032009c
:100ca0000004be000200be006011b8006b09200005
:100cb000950220000182cf000a0039000541b100f1
:100cc0000082cf00070039000541b1000982cf0042
:100cd000040039000541b1000882cf00010039004d
:100ce0000541b10005425200120032000a003b00eb
:100cf00082817100610164008100d1000080d30015
:100d00008984d3000884d3008b05e8000442e800fe
:100d1000f7ff3a00070037000804440089844c00bc
:100d200000004800818048008b05e9000442e9008a
:100d3000f9ff3a0022ff07004f05be004f04be0036
:040d400000000600a9
:020000040000fa
:100d44000000fa0014438000254380001041800015
:100d5400214180000001be000400be006aff0700bc
:100d6400b0418800c1418800b4418000c541800081
:100d7400d0418000e14180000001be000400be00bb
:100d84002afe07000002be001042800021428000bb
:100d94000001be000400be0024fe0700504288008b
:100da400614288000080fa00000006000000fa009a
:100db40070438000e10f500005003a00d0428000eb
:100dc400e142800050418800614188000c003700f6
:100dd40070438000e20f500005003a006000b80044
:100de40050418800614188006e28ef0004003700fc
:100df40070438000e30f500001003a006e28ef00ba
:100e0400704380000000e800704388000080fa000e
:100e1400000006000400fa00000f78001107980093
:100e24008e010700670107007a010700c022ef0066
:100e3400c902a900010e8000c0ff2f0000806000dd
:100e4400000e8800010e800030ff2f00008060003b
:100e5400000e8800010e8000f0f02f00008060007a
:100e6400000e880020172000200e8800c821ef0003
:100e7400c881a800c801a900c901a800c8a1a80088
:100e8400c821a900c921a800c221ef00c1e1a8001e
:100e9400cd02a800e134800000fe2f000080600035
:100ea4006000b300e0348800e1348000f00f2e00cd
:100eb400808060000050200001007000e034880051
:100ec400010f80000070200001007000000f8800f6
:100ed400e0c1a800e041a900e2e1a9000080eb0024
:100ee400300f8800210c800080ff2f0000806000fc
:100ef400200c880040062000100c8800800c200084
:100f0400000c88008461a90040062000100c8800b1
:100f1400210c800080ff2f00008060006000b3007f
:100f2400200c8800510c800080ff2f00008060009e
:100f3400500c880040062000400c8800800c2000e3
:100f4400300c88008a61a90040062000400c88000b
:100f5400510c800080ff2f00008060006000b3000f
:100f6400500c880071368000f00f2e0080806000e5
:100f74000020210001007000703688006136800076
:100f8400f00f2e008080600000302100010070000e
:100f94006036880011e1a8001240800023408000e0
:100fa4003040800041408000800f5100818f590003
:100fb4000e0034006f0007003900070044000700ea
:100fc4005fff07004e000700530007003240800017
:100fd40043408000b0428000c142800002004000d3
:100fe40083804800304088004140880012408000df
:100ff400234080005040800061408000800f5100f9
:10100400818f59000900340068ff070052408000b6
:101014006340800090428000a142800002004000b2
:10102400838048005040880061408800d0408000a0
:10103400e140800042e1200033482400d8fd07004d
:101044000200250063562400affe070002002400be
:10105400634e240075fd070038fe07000000780089
:10106400000c8800504180006141800042e1200072
:1010740033482400cafd07000200250063562400fb
:10108400a1fe070002002400634e240067fd070050
:101094002afe070000007800300c8800beff3700ed
:1010a4000000fa0092408000a3408000b04080001d
:1010b400c140800000005100818059003afe0700c1
:1010c400d0408800e14088000080fa00000006005b
:1010d4000000fa005441800065418000d040800047
:1010e400e14080000001be000400be004efd070088
:1010f40010418800214188000080fa0000000600a9
:101104000000fa0050428000614280005200070053
:101114000080fa00000006000000fa00d0408000c1
:10112400e1408000f0408800014188009040800048
:10113400a1408000b0408800c14088001042800077
:10114400214280003042880041428800d041800022
:10115400e1418000f0418800014288001041800094
:101164002141800030418800414188000080fa001c
:10117400000006000400fa00889fbe00200f8000d3
:101184008000eb00008fbe0070428000814280002e
:101194003e011000ae811800f0ff2700010020007e
:1011a400800f5100818f5900070034007040800087
:1011b4008140800061005000e08058007040880049
:1011c400814088000f003700704280008142800017
:1011d4003e011000ae81180010002800f1ff2f001e
:1011e400800f5100818f590006003d00704080003f
:1011f4008140800061004000e08048007040880029
:10120400814088007040800081408000e6fd070036
:1012140002002000037824003bfe07000004be0007
:101224001e00be00e0fd07000001be000800be0075
:10123400fefc0700a0fd070090408800a140880044
:101244001e01be0072428800834288004f04be0023
:101254000080fa00000006000c00fa00889fbe001f
:10126400400798005107980018c0b30002002000fe
:10127400832c24004e009000de0090008cfd0700bb
:101284000000e00001003c000044eb000804e00022
:101294000500320000002000812c24004007980043
:1012a400510798000f00370018c0b3000200200057
:1012b400832c2c004e009000de0090007afd070085
:1012c4000000e000010035000044eb000804e000e9
:1012d4000400320000002000812c2c0040079800fc
:1012e40051079800c2f5280023ec23004e0090001b
:1012f400de00900004fe0700020020008324240086
:10130400cafc0700008fbe00200e80000000e80029
:10131400000040008000eb00a6fd07000004be00b2
:1013240002002000832c24001e00be001cfd0700c8
:101334000001be000800be00f3fd07007ffd0700aa
:1013440000007800b00e8800c2f5280023ec2300ca
:101354004e009000de009000ebfd07000001be008f
:101364000000200081242400affc0700200798001f
:1013740031079800200e80000000e80000004000c3
:101384008000eb008bfd07000004be00020020007b
:10139400832c24002e009000be00900000fd070066
:1013a4000001be000800be00d7fd070063fd070072
:1013b40000007800c00e88004f04be000080fa00d0
:1013c400000006000000fa000421ef000021ef00f5
:1013d40000172000100888000300070005e1a8009a
:1013e4000080fa00000006000000fa008460a900f2
:1013f40021058000f0ff28008080600000002500a7
:1014040001007000200588009460a8000080fa00a4
:10141400000006000000fa001021ef000621ef0092
:1014240070e7200060088800020007000080fa00ce
:10143400000006000000fa0084e0a90031058000e5
:10144400f0ff28000080600000e0a0003005880064
:1014540094e0a8000080fa00000006000000fa00f2
:1014640040a7a900313a800000e02f00808060008e
:10147400e009200001007000303a8800213a800021
:1014840000fe2f00008060005000b300203a880066
:10149400213a8000f0f32f0000806000203a880099
:1014a4001200200080072000a109200033742000ce
:1014b4008049780081497800824978001200200030
:1014c4006004200071052000237420008049780006
:1014d40081497800824978000080fa000000060003
:020000040000fa
:1014e4007008000002000000020000000a00000072
:1014f4000008000052000000000000005208000034
:101504001e0000000200000050c30000000a00009a
:1015140000006f00128343000000c8004200000076
:101524000041000000004100000070004101000083
:0415340000000000b3
:020000040000fa
:0200000401f009
:04000000ffffff00ff
:020000040000fa
:0200000401f009
:04000400ffffff00fb
:020000040000fa
:0200000401f009
:04000800ffffff00f7
:020000040000fa
:0200000401f009
:04000c00810000006f
:020000040000fa
:0200000401f009
:04001000a700000045
:020000040000fa
:0200000401f009
:04001400df00000009
:020000040000fa
:0200000401f009
:04001800f7000000ed
:020000040000fa
:0200000401f009
:04001c00dfff000002
:00000001FF
